:100000000C9462000C948A000C948A000C948A0070
:100010000C948A000C948A000C948A000C94A5021B
:100020000C948A000C948A000C948A000C948A0028
:100030000C948A000C948A000C948A000C948A0018
:100040000C945B020C948A000C9404020C94DE0164
:100050000C948A000C948A000C948A000C948A00F8
:100060000C948A000C948A000000000025002800EF
:100070002B0000000000240027002A0004040404D0
:100080000404040402020202020203030303030342
:10009000010204081020408001020408102001021F
:1000A00004081020000000002300260029000000A2
:1000B0000008000201000003040700000000000027
:1000C0000000160C11241FBECFEFD8E0DEBFCDBF5D
:1000D00011E0A0E0B1E0EEEDFDE102C005900D926F
:1000E000AE32B107D9F722E0AEE2B1E001C01D9215
:1000F000A73BB207E1F710E0C2E6D0E004C02197C9
:10010000FE010E949A0CC136D107C9F70E94520421
:100110000C94ED0E0C940000CF92DF92EF92FF92C0
:100120000F931F93CF93DF936C017A018B01C0E093
:10013000D0E0CE15DF0589F0D8016D918D01D60193
:10014000ED91FC910190F081E02DC6010995892B7C
:1001500011F47E0102C02196ECCFC701DF91CF914F
:100160001F910F91FF90EF90DF90CF900895FC01C9
:10017000918D828D981761F0828DDF01A80FB11DDE
:100180005D968C91928D9F5F9F73928F90E0089502
:100190008FEF9FEF0895FC01918D828D981731F0BC
:1001A000828DE80FF11D858D90E008958FEF9FEF10
:1001B0000895FC01918D228D892F90E0805C9F4FE6
:1001C000821B91098F739927089587E491E00E941B
:1001D000D90021E0892B09F420E0822F0895FC0149
:1001E000848DDF01A80FB11DA35ABF4F2C91848DC0
:1001F00090E001968F739927848FA689B7892C93F5
:10020000A089B1898C9180648C93938D848D98138F
:1002100006C00288F389E02D80818F7D8083089558
:10022000EF92FF920F931F93CF93DF93EC0181E046
:10023000888F9B8D8C8D981305C0E889F989808102
:1002400085FD24C0F62E0B8D10E00F5F1F4F0F733E
:100250001127E02E8C8DE8120CC00FB607FCFACFE8
:10026000E889F989808185FFF5CFCE010E94EF00F2
:10027000F1CF8B8DFE01E80FF11DE35AFF4FF082A5
:100280000B8FEA89FB898081806207C0EE89FF8934
:100290006083E889F98980818064808381E090E0CF
:1002A000DF91CF911F910F91FF90EF900895CF9321
:1002B000DF93EC01888D8823C9F0EA89FB8980816E
:1002C00085FD05C0A889B9898C9186FD0FC00FB640
:1002D00007FCF5CF808185FFF2CFA889B9898C9181
:1002E00085FFEDCFCE010E94EF00E7CFDF91CF91E8
:1002F000089580E090E0892B29F00E94E5008111AB
:100300000C9400000895833081F028F4813099F036
:100310008230A1F008958730A9F08830B9F0843098
:10032000D1F4809180008F7D03C0809180008F7711
:1003300080938000089584B58F7702C084B58F7D47
:1003400084BD08958091B0008F7703C08091B00084
:100350008F7D8093B00008951F93CF93DF93282F54
:1003600030E0F901E255FF4F8491F901E057FF4F6A
:10037000D491F901E458FF4FC491CC23C9F0162F52
:1003800081110E948301EC2FF0E0EE0FFF1FE8596E
:10039000FF4FA591B4918FB7F894111105C09C91AE
:1003A000ED2FE095E92302C0EC91ED2BEC938FBF8C
:1003B000DF91CF911F9108950E94E80E1F920F9236
:1003C0000FB60F9211242F933F934F935F936F9328
:1003D0007F938F939F93AF93BF93EF93FF9387E4A4
:1003E00091E00E94EF00FF91EF91BF91AF919F913B
:1003F0008F917F916F915F914F913F912F910F90CE
:100400000FBE0F901F9018951F920F920FB60F926C
:1004100011242F938F939F93EF93FF93E0915701B4
:10042000F09158018081E0915D01F0915E0182FDC3
:1004300012C09081809160018F5F8F732091610164
:10044000821751F0E0916001F0E0E95BFE4F958F7B
:100450008093600101C08081FF91EF919F918F9106
:100460002F910F900FBE0F901F9018953FB7F894E3
:100470008091330190913401A0913501B091360102
:1004800026B5A89B05C02F3F19F00196A11DB11DEF
:100490003FBFBA2FA92F982F8827820F911DA11D2A
:1004A000B11DBC01CD0142E0660F771F881F991F67
:1004B0004A95D1F708951F920F920FB60F9211240B
:1004C0002F933F938F939F93AF93BF9380912F016F
:1004D00090913001A0913101B091320130912E0103
:1004E00023E0230F2D3720F40196A11DB11D05C077
:1004F00026E8230F0296A11DB11D20932E018093A3
:100500002F0190933001A0933101B093320180917B
:10051000330190913401A0913501B09136010196DB
:10052000A11DB11D8093330190933401A093350137
:10053000B0933601BF91AF919F918F913F912F91D1
:100540000F900FBE0F901F9018951F920F920FB62D
:100550000F9211242F933F934F935F936F937F9349
:100560008F939F93AF93BF93CF93DF93EF93FF93BB
:100570002091E50130E0F901E255FF4F8491F90146
:10058000E057FF4FD491F901E458FF4FC491CC23B9
:10059000A1F081110E948301EC2FF0E0EE0FFF1F0C
:1005A000EC55FF4FA591B491EC91ED2331E020E0A3
:1005B00009F430E0832F922F02C080E090E0209178
:1005C000E9013091EA012F5F3F4F3093EA01209318
:1005D000E9012091E801253618F026E02093E40196
:1005E0002091E4012430D9F128F4223069F023303D
:1005F000D9F060C0253009F453C0263009F05AC044
:1006000021E02093B50253C0009709F053C0209118
:10061000E9013091EA012436310508F443C0109213
:10062000B5021092E8011DC08130910509F042C069
:10063000E091E80121E02E0F2093E801F0E0209105
:10064000E9013091EA01EE0FFF1FEC51FE4F3087B8
:1006500027831092EA011092E90124E029C0009753
:10066000B9F4E091E80121E02E0F2093E801F0E0D9
:100670002091E9013091EA01EE0FFF1FEC51FE4F8E
:10068000308727831092EA011092E90123E010C01D
:100690002091E9013091EA012536310558F007C073
:1006A000009741F41092EA011092E90103C025E09D
:1006B0002093E4012091E7012223B9F0892B51F422
:1006C0008091E601882321F08091E60161E009C074
:1006D0002D9A0BC08091E601882331F08091E601CC
:1006E00060E00E94AC0101C02D98FF91EF91DF9175
:1006F000CF91BF91AF919F918F917F916F915F91BA
:100700004F913F912F910F900FBE0F901F90189512
:10071000CF92DF92EF92FF92CF93DF93EC01072EFF
:10072000000C880B990B0E94CB0D6B017C0120E023
:1007300030E040E45FE30E947B0E20E030E048E4DC
:1007400052E40E94210D0E94930DC617D707D4F0E2
:1007500020E030E040EA5FE3C701B6010E947B0E73
:1007600020E030E048E452E40E94210D20E030E037
:1007700040E85FE30E94B00C0E94930D21E06C17EB
:100780007D070CF420E0822F90E0DF91CF91FF9065
:10079000EF90DF90CF900895009769F0FC010190F1
:1007A0000020E9F73197AF01481B590BBC0187E4E2
:1007B00091E00C948C0080E090E008958F929F92DD
:1007C000AF92BF92CF92DF92EF92FF920F931F935F
:1007D000CF93DF93FC01C081D181209143013091FF
:1007E0004401C217D3070CF04BC09E01220F331FE8
:1007F000E0914101F0914201E20FF31F808091806E
:10080000C170DD27F1E0CF27209719F404E610E04E
:1008100002C00CE91FEF7A015B016C01040F151F88
:10082000B801C4010E948803892B99F40E0D1F1D85
:10083000B801C4010E948803892B71F4B8016E0DC0
:100840007F1DC4010E948803892BE9F023E030E07A
:1008500005C021E030E002C022E030E0F5018081F7
:1008600091810196821793073CF0F5011182108265
:10087000F60180819181019691838083CE0105C02C
:1008800081E090E002C08FEF9FEFDF91CF911F9149
:100890000F91FF90EF90DF90CF90BF90AF909F901F
:1008A0008F900895CF93DF93CDB7DEB7AB970FB698
:1008B000F894DEBF0FBECDBF789484B5826084BD4E
:1008C00084B5816084BD85B5826085BD85B5816054
:1008D00085BD80916E00816080936E0010928100D2
:1008E000809181008260809381008091810081608D
:1008F000809381008091800081608093800080914E
:10090000B10084608093B1008091B00081608093D9
:10091000B00080917A00846080937A0080917A00A0
:10092000826080937A0080917A00816080937A005F
:1009300080917A00806880937A001092C100E091E3
:100940005701F091580112E01083E0915301F091AA
:1009500054011082E0915501F09156018FEC808393
:1009600010925F01E0915B01F0915C0186E0808371
:10097000E0915901F0915A01808180618083E0917A
:100980005901F0915A01808188608083E09159017A
:10099000F0915A01808180688083E0915901F09143
:1009A0005A0180818F7D808380E191E00E94CC0399
:1009B0008EE191E00E94CC03F8941093B000109364
:1009C000B10084E68093B3001092B20010937000DF
:1009D00078941093E4011092E8018091E50190E091
:1009E000FC01E057FF4F2491FC01E458FF4F849134
:1009F0008823C9F090E0880F991FFC01EE58FF4F43
:100A000045915491FC01E859FF4FA591B4919FB7CE
:100A1000F894FA0180812095822380838C91E22FC3
:100A2000E823EC939FBF81E291E00E94CC038EE12A
:100A300091E00E94CC0370E2272E312C44244A948A
:100A4000542C32012BEE31E03093420120934101CE
:100A50008091E80190E0909344018093430180915C
:100A6000B50290E090934601809345018091E401A6
:100A7000853009F07BC28091ED019091EE0188589C
:100A800091098D35910588F48091E801843041F415
:100A90008091EF019091F0018097479708F4A8C2E8
:100AA0008091E801843408F08AC28091E8018A319B
:100AB00008F44FC08091EB019091EC01843F91408C
:100AC00068F41092400110923F0140923B01509215
:100AD0003C0160923D0170923E0159C08091ED0150
:100AE0009091EE0185974B97A0F5E1EFF1E082E060
:100AF00090E0C12CD12C7601AC014F5F5F4F20916B
:100B0000E80130E0421753075CF4DF0112972D91A2
:100B10003C91275031092730310508F4B3C2CA018E
:100B20000197959587959093400180933F010C978D
:100B30002CF41092400110923F010BC0C0923B0177
:100B4000D0923C01E0923D01F0923E0184E090E0C1
:100B50006EC38091E8018A3108F44CC08091EB01AA
:100B60009091EC018032934008F4ABCF8091ED017D
:100B70009091EE01C697869708F4A1C23BC0C0923F
:100B80003B01D0923C01E0923D01F0923E018BE0AE
:100B900090E04DC320813181255231092B3131053F
:100BA00008F09DC2CC0CDD1CEE1CFF1C6894C0F844
:100BB00002963496AC014F5F5F4F2091E80130E020
:100BC0004217530754F4DF0112972D913C912C509A
:100BD00031092B303105F0F2CA01019795958795BF
:100BE0009093400180933F010C974CF61092400186
:100BF00010923F018091E801823208F44DC080914B
:100C0000ED019091EE010697079708F045C0E1EFDE
:100C1000F1E082E090E0C12CD12C76019C012F5FA5
:100C20003F4F4091E80150E024173507E4F4DF011D
:100C300012974D915C9111974E51510947315105D1
:100C400008F05AC2CC0CDD1CEE1CFF1C6894C0F8E6
:100C5000408151813496435051094530510510F47B
:100C60000296DCCFC9010197959587959093400135
:100C700080933F0140972CF41092400110923F0165
:100C80000BC0C0923B01D0923C01E0923D01F0923A
:100C90003E018CE090E0CBC21BA21AA2E1E0F0E0A2
:100CA000FA83E9838091E8018D3008F46FC049E749
:100CB00053E0BE016E5D7F4FCE0101960E94DE03C0
:100CC000892B09F063C049E753E0BE016E5D7F4F99
:100CD000CE0101960E94DE03019709F057C049E753
:100CE00053E0BE016E5D7F4FCE0101960E94DE0390
:100CF000892B09F04BC0812C912C540100E010E0AD
:100D00008091E80190E029813A81281739075CF544
:100D100049E753E0BE016E5D7F4FCE0101960E9410
:100D2000DE037C0149E753E0BE016E5D7F4FCE01DB
:100D300001960E94DE03F1E0EF16F10449F4892BDD
:100D400029F5880C991CAA1CBB1C689480F808C063
:100D5000EF28E1F40197D1F4880C991CAA1CBB1C64
:100D60000F5F1F4FCDCF1093400100933F01809242
:100D70003B0190923C01A0923D01B0923E0121E0E6
:100D800030E03093380120933701BEC01BA21AA275
:100D900081E090E09A83898380914301909144019E
:100DA000181619060CF058C0E0914101F09142016B
:100DB00082E090E09A8389838281938189974E971C
:100DC00008F04AC023E030E03A832983848195818A
:100DD0000B970A9708F040C04CEB51E0BE016E5DE6
:100DE0007F4FCE0101960E94DE03892BA9F54CEBC3
:100DF00051E0BE016E5D7F4FCE0101960E94DE0381
:100E0000019751F5812C912C540100E010E02981CB
:100E10003A818091430190914401281739070CF0E1
:100E2000AEC14CEB51E0BE016E5D7F4FCE0101962D
:100E30000E94DE036C010330110509F06AC14CEB1E
:100E400051E0BE016E5D7F4FCE0101960E94DE0330
:100E5000C816D90609F45DC1E0914101F091420143
:100E600082819381C697869708F0A7C18481958176
:100E70004B97459708F0A1C1DF0116967F0136EC2C
:100E8000E30EF11C20E030E040E050E060E070E074
:100E900080E090E0CD90DC90119719E0C11AD10864
:100EA00018E0C116D10408F088C11296CD90DC90EC
:100EB000139711E1C11AD1081DE0C116D10408F041
:100EC0006DC101E00E94630C21601496AE15BF0550
:100ED00009F720933B0130933C0140933D0150932F
:100EE0003E0100E20E947E0C2093390130933A01CA
:100EF00085E090E0909338018093370180E390E0A3
:100F00009093400180933F0100913B0110913C017F
:100F100020913D0130913E0119A2CE018196B90187
:100F2000A8014F70552766277727E4E03695279567
:100F300017950795EA95D1F701974A305105610554
:100F4000710508F079C1405DDC014C930115110574
:100F50002105310521F70E94CC038EE191E00E942A
:100F6000CC0382E08093E4011092E8010E943602F3
:100F70004B015C0104E6C02ED12CE12CF12C0E9427
:100F80003602DC01CB0188199909AA09BB09883E00
:100F90009340A105B10558F0B1E0CB1AD108E108A2
:100FA000F108E8EE8E0EE3E09E1EA11CB11CC114F8
:100FB000D104E104F10419F70E94790143CD809135
:100FC000EF019091F001825491098E9708F06DCD58
:100FD00080E090E040E050E0BA01FC01EF50FE4FAD
:100FE000208131812950310929303105E0F05DCD72
:100FF0008091F1019091F2010997099708F050CD85
:101000001092400110923F0140923B0150923C01EE
:1010100060923D0170923E01E3E0F0E0F093380110
:10102000E093370171CFFC01ED50FE4F20813181FB
:101030002751310922313105C0F4440F551F661F75
:10104000771F416004968038910539F6309240014F
:1010500020923F0140933B0150933C0160933D013E
:1010600070933E0183E090E0E2C020813181265000
:1010700031092730310508F018CD440F551F661F80
:10108000771FE0CF20813181235131092F30310585
:1010900048F4CC0CDD1CEE1CFF1C6894C0F80296D2
:1010A00034962ACD208131812A50310929303105E9
:1010B00008F04FCDCC0CDD1CEE1CFF1CF0CF809156
:1010C000EF019091F001C697869708F093CDE3EF7A
:1010D000F1E083E090E0C12CD12C76016BCD208132
:1010E00031812C5031092A30310508F083CDCC0CE8
:1010F000DD1CEE1CFF1C5CCD4D915C914C505109E8
:101100004B30510508F0C8CDCC0CDD1CEE1CFF1C8B
:101110009FCD4CEB51E0BE016E5D7F4FCE0101963D
:101120000E94DE037C010330110569F44CEB51E0B1
:10113000BE016E5D7F4FCE0101960E94DE03E81670
:10114000F90609F089CEC114D10459F4EA94EF28C4
:1011500009F082CE880C991CAA1CBB1C689480F8EC
:101160000BC0CA94CD2809F077CEEF2809F074CED1
:10117000880C991CAA1CBB1C0F5F1F4F48CE1093F4
:10118000400100933F0180923B0190923C01A0926C
:101190003D01B0923E0182E090E049C01296CD90B0
:1011A000DC90139714E0C11AD10815E0C116D104E0
:1011B00020F401E00E94630C88CE8091E80189331D
:1011C00040F082819381895791098335910508F414
:1011D0004BC18091E801823289F1828193818957E4
:1011E00091098335910508F4BAC1828193818C54A9
:1011F0009109C59778F58091E801843031F58481B3
:1012000095818097479708F5868197810997099777
:10121000E0F41092400110923F0140923B01509245
:101220003C0160923D0170923E0187E090E0909316
:1012300038018093370168CE495C86CE82819381E4
:101240000A97099708F46FC1C8CF8091E8018434E8
:1012500008F0EAC18091E801863460F182819381CF
:101260000C970B9708F42EC225C0D90112966D91E8
:101270007C9113976E5171096731710508F058C25E
:10128000D701C601880F991FAA1FBB1F6C017D01E2
:101290006894C0F84E5F5F4F2C5F3F4F4534510557
:1012A00009F42BC2D9016D917C916C5071096B309E
:1012B0007105D8F28091E801883580F182819381AF
:1012C000855891098B35910508F442C227C0BC01AD
:1012D0006F5F7F4FD8014D915C9111974750510935
:1012E0004730510508F043C2220F331F2160029698
:1012F0000C5F1F4F4091E80150E0445051098417A2
:1013000095070CF03CC2A80142505109DA014D91F9
:101310005C914950510948305105C8F28091E8016B
:101320008032E1F48281938106970697B8F4848134
:1013300095810997099790F49F012A5F3F4FBF015C
:10134000625C7F4FC12CD12C7601D9014D915C910B
:10135000465051094630510508F42DC220914301F1
:10136000309144013FA32EA3263031050CF4F9CD72
:101370008F010A5F1F4FB5ECCB2EBDE9DB2EBCE120
:10138000EB2EB1E8FB2E83E090E09DA38CA3D80167
:101390006D917C91F8013497A080B18080E090E05D
:1013A0000E94C90D68A779A78AA79BA7B50180E00D
:1013B00090E00E94C90D4B015C012DEC3CEC4CE42B
:1013C0005FE30E947B0E9B01AC0168A579A58AA50D
:1013D0009BA50E941C0D87FD19C02DEC3CEC4CE434
:1013E0005FE368A579A58AA59BA50E947B0E9B015A
:1013F000AC01C501B4010E941C0DE82F880FFF0B42
:10140000EE27FF0FEE1FFF27319602C0E0E0F0E06D
:10141000A701960163E971E080E091E00E94480C29
:101420006F01FF0FEE08FF08C626D726E826F9262B
:10143000ECA1FDA13196FDA3ECA30E5F1F4F2EA1E1
:101440003FA1E217F30709F0A2CFC0923B01D0926F
:101450003C01E0923D01F0923E0130924001209229
:101460003F018FEF9FEFE3CE84819581CA978997E3
:1014700008F0AFCE9F012A5F3F4FC12CD12C7601DF
:1014800043E050E0D9016D917C916A507109693057
:10149000710508F09ECED90112966D917C9113973B
:1014A000665171096131710570F5D701C601880F68
:1014B000991FAA1FBB1F6C017D016894C0F84E5F85
:1014C0005F4F2C5F3F4F4B335105E1F69F012A5888
:1014D0003F4FD9012D913C912A50310929303105D6
:1014E00008F077CE2CE130E03093400120933F01AB
:1014F000C0923B01D0923C01E0923D01F0923E014E
:101500008AE090E094CED90112966D917C91139768
:10151000665071096730710508F05BCECC0CDD1C9C
:10152000EE1CFF1CCCCF2091E801CF01820F911D52
:10153000820F911DDC0112978D919C910A9709975A
:1015400008F04BCE1092400110923F0140923B01B7
:1015500050923C0160923D0170923E0162C08091C8
:10156000E801813208F441CE84819581CA97899738
:1015700008F03BCE9F012A5F3F4FC12CD12C760152
:1015800043E050E0D9016D917C916A507109693056
:10159000710508F02ACED90112966D917C911397AE
:1015A000665171096131710560F5D701C601880F77
:1015B000991FAA1FBB1F6C017D016894C0F84E5F84
:1015C0005F4F2C5F3F4F43325105E1F69F012A5B8D
:1015D0003F4FD9012D913C912A50310929303105D5
:1015E00008F003CE20E130E03093400120933F012A
:1015F000C0923B01D0923C01E0923D01F0923E014D
:1016000010C0D90112966D917C91139766507109A3
:101610006730710508F0E9CDCC0CDD1CEE1CFF1C19
:10162000CECF86E090E003CE8481958189549109E4
:10163000C39708F00FCE9F012A5F3F4FBF016A5743
:101640007F4FC12CD12C7601D9014D915C9149502D
:1016500051094930510508F0FDCDD90112964D913F
:101660005C911397465151094131510500F1129691
:101670004D915C911397465051094730510508F040
:10168000E9CDCC0CDD1CEE1CFF1C2C5F3F4F261758
:101690003707D1F63092400120923F01C0923B01C2
:1016A000D0923C01E0923D01F0923E01BECDD701C7
:1016B000C601880F991FAA1FBB1F6C017D0168948A
:1016C000C0F8E3CF848195810997099708F0F2CD9E
:1016D000868197818C974F9708F0ECCD8085918516
:1016E00089974D9708F0E6CD9F01265F3F4FC12CAB
:1016F000D12C760145E050E0D5CD9F0126573F4FD4
:10170000D9012D913C912C5031092B30310508F035
:10171000D1CD3092400120923F01C0923B01D09246
:101720003C01E0923D01F0923E0188E090E07FCDE7
:10173000D90112966D917C911397695071096930A6
:10174000710508F0B7CDCC0CDD1CEE1CFF1CA2CD42
:1017500084819581825491098E9708F0DFCD8F01A5
:10176000045C1F4F8DE190E020E030E0C3CD4D914F
:101770005C914851510942315105D0F0CB0101979C
:10178000959587959093400180933F018A970CF43B
:10179000C5CDC901330FAA0BBB0B80933B019093BE
:1017A0003C01A0933D01B0933E0189E090E03FCD24
:1017B000220F331F9CCDD90112964D915C91139746
:1017C000495151094331510508F5D701C601880F28
:1017D000991FAA1FBB1F6C017D016894C0F82C5F84
:1017E0003F4F2617370709F0B0CD2EE030E0309399
:1017F000400120933F01C0923B01D0923C01E09216
:101800003D01F0923E018FE090E011CDD90112969A
:101810004D915C911397495051094930510508F099
:101820009DCDCC0CDD1CEE1CFF1CD9CFE7E4F1E014
:101830001382128288EE93E0A0E0B0E08483958367
:10184000A683B78384E091E09183808385EC90E068
:101850009587848784EC90E09787868780EC90E07A
:10186000918B808B81EC90E0938B828B82EC90E06B
:10187000958B848B86EC90E0978B868B118E128EE5
:10188000138E148EE4EEF1E08BE0818313820895D1
:10189000DB018F939F930E94580CBF91AF91A29F41
:1018A000800D911DA39F900DB29F900D112408955E
:1018B0000E94A00CA59F900DB49F900DA49F800D39
:1018C000911D112408950F93083090F0982F872FC1
:1018D000762F652F542F432F322F22270850F4CF15
:1018E000220F331F441F551F661F771F881F991F24
:1018F0000A95B2F70F91089597FB10F81694000817
:101900000F93083098F00850232F342F452F562F6F
:10191000672F782F892F902DF4CF05949795879571
:101920007795679557954795379527950A95AAF71F
:101930000F910895EE0FFF1F0590F491E02D09948B
:10194000A29FB001B39FC001A39F700D811D112400
:10195000911DB29F700D811D1124911D0895505845
:10196000BB27AA270E94C70C0C94410E0E94330E7D
:1019700038F00E943A0E20F039F49F3F19F426F413
:101980000C94300E0EF4E095E7FB0C942A0EE92F30
:101990000E94520E58F3BA1762077307840795071F
:1019A00020F079F4A6F50C94740E0EF4E0950B2E4D
:1019B000BA2FA02D0B01B90190010C01CA01A001A1
:1019C0001124FF27591B99F0593F50F4503E68F1FC
:1019D0001A16F040A22F232F342F4427585FF3CF3D
:1019E000469537952795A795F0405395C9F77EF40E
:1019F0001F16BA0B620B730B840BBAF09150A1F057
:101A0000FF0FBB1F661F771F881FC2F70EC0BA0FDC
:101A1000621F731F841F48F4879577956795B79564
:101A2000F7959E3F08F0B0CF9395880F08F099275F
:101A3000EE0F9795879508950E94060E08F481E0B1
:101A400008950E94350D0C94410E0E943A0E58F0F4
:101A50000E94330E40F029F45F3F29F00C942A0EC7
:101A600051110C94750E0C94300E0E94520E68F3B6
:101A70009923B1F3552391F3951B550BBB27AA2747
:101A800062177307840738F09F5F5F4F220F331F81
:101A9000441FAA1FA9F335D00E2E3AF0E0E832D049
:101AA00091505040E695001CCAF72BD0FE2F29D04C
:101AB000660F771F881FBB1F261737074807AB071E
:101AC000B0E809F0BB0B802DBF01FF2793585F4F93
:101AD0003AF09E3F510578F00C942A0E0C94750E46
:101AE0005F3FE4F3983ED4F3869577956795B79575
:101AF000F7959F5FC9F7880F911D9695879597F980
:101B00000895E1E0660F771F881FBB1F62177307F8
:101B10008407BA0720F0621B730B840BBA0BEE1F0D
:101B200088F7E09508950E949A0D6894B1110C947D
:101B3000750E08950E945A0E88F09F5798F0B92F9D
:101B40009927B751B0F0E1F0660F771F881F991FF2
:101B50001AF0BA95C9F714C0B13091F00E94740E12
:101B6000B1E008950C94740E672F782F8827B85F22
:101B700039F0B93FCCF3869577956795B395D9F74A
:101B80003EF490958095709561957F4F8F4F9F4F54
:101B90000895E89409C097FB3EF490958095709560
:101BA00061957F4F8F4F9F4F9923A9F0F92F96E9A9
:101BB000BB279395F695879577956795B795F1111E
:101BC000F8CFFAF4BB0F11F460FF1BC06F5F7F4FBB
:101BD0008F4F9F4F16C0882311F096E911C07723CD
:101BE00021F09EE8872F762F05C0662371F096E8D6
:101BF000862F70E060E02AF09A95660F771F881FA5
:101C0000DAF7880F9695879597F90895990F000848
:101C1000550FAA0BE0E8FEEF16161706E807F907BE
:101C2000C0F012161306E407F50798F0621B730B59
:101C3000840B950B39F40A2661F0232B242B252BDA
:101C400021F408950A2609F4A140A6958FEF811D7D
:101C5000811D089597F99F6780E870E060E008951E
:101C60009FEF80EC089500240A94161617061806B4
:101C70000906089500240A94121613061406050690
:101C80000895092E0394000C11F4882352F0BB0F21
:101C900040F4BF2B11F460FF04C06F5F7F4F8F4F84
:101CA0009F4F089557FD9058440F551F59F05F3FBF
:101CB00071F04795880F97FB991F61F09F3F79F06E
:101CC00087950895121613061406551FF2CF4695F0
:101CD000F1DF08C0161617061806991FF1CF869572
:101CE0007105610508940895E894BB276627772756
:101CF000CB0197F908950E948E0E0C94410E0E941C
:101D0000330E38F00E943A0E20F0952311F00C9417
:101D10002A0E0C94300E11240C94750E0E94520E53
:101D200070F3959FC1F3950F50E0551F629FF0012E
:101D3000729FBB27F00DB11D639FAA27F00DB11D47
:101D4000AA1F649F6627B00DA11D661F829F2227D0
:101D5000B00DA11D621F739FB00DA11D621F839F57
:101D6000A00D611D221F749F3327A00D611D231F2D
:101D7000849F600D211D822F762F6A2F11249F577B
:101D800050409AF0F1F088234AF0EE0FFF1FBB1F7E
:101D9000661F771F881F91505040A9F79E3F51053D
:101DA00080F00C942A0E0C94750E5F3FE4F3983E7D
:101DB000D4F3869577956795B795F795E7959F5FE7
:101DC000C1F7FE2B880F911D9695879597F9089579
:0E1DD00081E090E0F8940C94ED0EF894FFCFB3
:101DDE000000000010018C00D900B700CB005701A5
:101DEE00456E61626C696E67204952696E000D0A1C
:0E1DFE0000456E61626C6564204952696E009A
:107800000C94343C0C94513C0C94513C0C94513CE1
:107810000C94513C0C94513C0C94513C0C94513CB4
:107820000C94513C0C94513C0C94513C0C94513CA4
:107830000C94513C0C94513C0C94513C0C94513C94
:107840000C94513C0C94513C0C94513C0C94513C84
:107850000C94513C0C94513C0C94513C0C94513C74
:107860000C94513C0C94513C11241FBECFEFD8E036
:10787000DEBFCDBF11E0A0E0B1E0ECE9FFE702C060
:1078800005900D92A230B107D9F712E0A2E0B1E065
:1078900001C01D92AD30B107E1F70E942D3D0C945F
:1078A000CC3F0C94003C982F959595959595959582
:1078B000905D8F708A307CF0282F295A8091C0000B
:1078C00085FFFCCF9093C6008091C00085FFFCCF60
:1078D0002093C6000895282F205DF0CF982F809127
:1078E000C00085FFFCCF9093C6000895EF92FF92F1
:1078F0000F931F93EE24FF2487018091C00087FD22
:1079000017C00894E11CF11C011D111D81E4E8164B
:1079100082E4F8068FE0080780E0180770F3E09132
:107920000401F091050109958091C00087FFE9CF1E
:107930008091C6001F910F91FF90EF9008950E94D3
:10794000763C982F8091C00085FFFCCF9093C600B5
:1079500091362CF490330CF09053892F089597555D
:10796000892F08951F930E949F3C182F0E949F3CCF
:107970001295107F810F1F9108951F93182F882350
:1079800021F00E94763C1150E1F71F9108951F935A
:10799000182F0E94763C803249F0809103018F5F5E
:1079A000809303018530C1F01F9108958091C0003C
:1079B00085FFFCCF84E18093C6008091C00085FFE5
:1079C000FCCF1093C6008091C00085FFFCCF80E102
:1079D0008093C6001F910895E0910401F091050184
:1079E00009951F9108950E94763C803241F0809164
:1079F00003018F5F80930301853081F008958091AA
:107A0000C00085FFFCCF84E18093C6008091C00058
:107A100085FFFCCF80E18093C6000895E0910401CA
:107A2000F09105010995089540E951E08823A1F0FE
:107A30002D9A28EE33E0FA013197F1F721503040CA
:107A4000D1F72D9828EE33E0FA013197F1F7215064
:107A50003040D1F7815061F708953F924F925F9285
:107A60006F927F928F929F92AF92BF92CF92DF924E
:107A7000EF92FF920F931F93CF93DF93000080E16B
:107A80008093C4001092C50088E18093C10086E015
:107A90008093C2005098589A259A81E00E94143D24
:107AA00024E1F22E9EE1E92E85E9D82E0FE0C02ECA
:107AB00010E1B12EAA24A394B1E49B2EA6E58A2E50
:107AC000F2E57F2EE0E26E2E79E4572E63E5462E36
:107AD00050E5352E0E94763C8033B1F18133B9F107
:107AE000803409F46FC0813409F476C0823409F41B
:107AF00085C0853409F488C0803531F1823521F1A3
:107B0000813511F1853509F485C0863509F48DC0BC
:107B1000843609F496C0843709F403C1853709F423
:107B200072C1863709F466C0809103018F5F80932C
:107B30000301853079F6E0910401F0910501099582
:107B40000E94763C803351F60E94F33CC3CF0E94E2
:107B5000763C803249F78091C00085FFFCCFF092DF
:107B6000C6008091C00085FFFCCF9092C600809136
:107B7000C00085FFFCCF8092C6008091C00085FFC9
:107B8000FCCF7092C6008091C00085FFFCCF609250
:107B9000C6008091C00085FFFCCF5092C600809146
:107BA000C00085FFFCCF4092C6008091C00085FFD9
:107BB000FCCF3092C6008091C00085FFFCCFB09210
:107BC000C60088CF0E94763C863808F4BDCF0E945C
:107BD000763C0E94F33C7ECF0E94763C803809F4CC
:107BE0009CC0813809F40BC1823809F43CC1883942
:107BF00009F48FC080E00E94C73C6CCF84E10E94F2
:107C0000BD3C0E94F33C66CF85E00E94BD3C0E94D3
:107C1000F33C60CF0E94763C809306010E94763C44
:107C2000809307010E94F33C55CF0E94763C80333D
:107C300009F41DC183E00E94BD3C80E00E94C73C66
:107C400049CF0E94763C809309020E94763C809343
:107C5000080280910C028E7F80930C020E94763C79
:107C6000853409F415C18091080290910902892B8D
:107C700089F000E010E00E94763CF801E85FFE4FDA
:107C800080830F5F1F4F80910802909109020817AF
:107C9000190788F30E94763C803209F045CF809125
:107CA0000C0280FF01C16091060170910701660F0F
:107CB000771F7093070160930601A0910802B091AD
:107CC00009021097C9F0E8E0F1E09B01AD014E0F09
:107CD0005F1FF999FECF32BD21BD819180BDFA9A17
:107CE000F99A2F5F3F4FE417F50799F76A0F7B1F4B
:107CF00070930701609306018091C00085FFFCCF5F
:107D0000F092C6008091C00085FFFCCFB092C60003
:107D1000E1CE83E00E94C73CDDCE82E00E94C73CFA
:107D2000D9CE0E94763C809309020E94763C8093D3
:107D300008028091060190910701880F991F909386
:107D40000701809306010E94763C853409F4A6C0A1
:107D500080910C028E7F80930C020E94763C8032D0
:107D600009F0B8CE8091C00085FFFCCFF092C6002C
:107D7000609108027091090261157105B9F140E046
:107D800050E080910C02A82FA170B82FB27011C0E2
:107D9000BB2309F45CC0E0910601F0910701319624
:107DA000F0930701E09306014F5F5F4F46175707B7
:107DB000E8F4AA2369F3F999FECF209106013091E6
:107DC000070132BD21BDF89A90B58091C00085FFB2
:107DD000FCCF9093C6002F5F3F4F30930701209355
:107DE00006014F5F5F4F4617570718F38091C00099
:107DF00085FDE5CE8091C00085FFF8CFE0CE81E023
:107E00000E94C73C67CE0E94763C803209F08CCE3F
:107E10008091C00085FFFCCFF092C6008091C00029
:107E200085FFFCCFE092C6008091C00085FFFCCFAB
:107E3000D092C6008091C00085FFFCCFC092C600E2
:107E40008091C00085FFFCCFB092C60043CEE09188
:107E50000601F091070194918091C00085FFFCCF4D
:107E60009093C6009CCF80E10E94C73C33CE0E9415
:107E7000763C0E94763C182F0E94763C112309F430
:107E800083C0113009F484C08FE00E94C73C22CE29
:107E900080910C02816080930C02E5CE80910C02EF
:107EA000816080930C0259CF809107018823880F4D
:107EB000880B8A2180930B02809106019091070123
:107EC000880F991F90930701809306018091080203
:107ED00080FF09C080910802909109020196909359
:107EE000090280930802F894F999FECF1127E091D6
:107EF0000601F0910701C8E0D1E08091080290915D
:107F00000902103091F40091570001700130D9F34B
:107F100003E000935700E89500915700017001308D
:107F2000D9F301E100935700E89509901990009169
:107F3000570001700130D9F301E000935700E89534
:107F40001395103498F011270091570001700130FB
:107F5000D9F305E000935700E895009157000170B0
:107F60000130D9F301E100935700E895329602976A
:107F700009F0C7CF103011F00296E5CF112480919F
:107F8000C00085FFB9CEBCCE8EE10E94C73CA2CD19
:0C7F900085E90E94C73C9ECDF894FFCF0D
:027F9C00800063
:040000030000780081
:00000001FF
